:020000041000EA
:1000000000B5324B212058609868022188439860DF
:10001000D860186158612E4B002199600221596106
:100020000121F02299502B49196001219960352056
:1000300000F044F80222904214D00621196600F024
:1000400034F8196E01211966002018661A6600F04E
:100050002CF8196E196E196E052000F02FF8012189
:100060000842F9D1002199601B49196000215960AB
:100070001A491B48016001219960EB211966A021F2
:10008000196600F012F800219960164914480160C1
:100090000121996001BC002800D000471248134993
:1000A000086003C880F30888084703B5996A0420EC
:1000B0000142FBD001200142F8D103BD02B5186610
:1000C0001866FFF7F2FF186E186E02BD00000240BE
:1000D000000000180000070000035F00212200005C
:1000E000F4000018222000A00001001008ED00E03C
:1000F00000000000000000000000000074B24E7A12
:1001000000200420F7010010C3010010C5010010F9
:10011000C1010010C1010010C1010010C101001097
:10012000C1010010C1010010C1010010AD7C001020
:10013000C1010010C1010010457C0010297D001094
:10014000CD010010CD010010CD010010CD01001037
:10015000CD010010CD010010CD010010CD01001027
:10016000CD010010CD010010CD010010CD01001017
:10017000CD010010CD010010CD010010CD01001007
:10018000CD010010CD010010CD010010CD010010F7
:10019000CD010010CD010010CD010010CD010010E7
:1001A000CD010010CD010010CD010010CD010010D7
:1001B000CD010010CD010010CD010010CD010010C7
:1001C00000BE00BE00BE00BE00BE00BEEFF3058054
:1001D000103800BEF2EB8871C8870010E887001065
:1001E0003802001090A31AE71E481F49086006C88D
:1001F00081F3088810471D480068002801D019487D
:10020000F3E70DA40ECC002902D000F012F8F9E7B4
:100210001749184A002000E001C19142FCD116495B
:100220008847164988471649884700BEFDE701C937
:1002300001C29A42FBD37047E8870010C00000203B
:1002400094100020BC97001000000420000004203F
:10025000BC970010001004200010042000000000D3
:10026000704700000000000008ED00E0000000D032
:1002700094100020FC360020951A001099030010FD
:100280008D1A0010F8B5C0460448054B10B58342DE
:1002900003D0044B002B00D0984710BD94100020D1
:1002A000941000200000000006480749091A8B102E
:1002B000C90FC91810B5491003D0044B002B00D04A
:1002C000984710BD941000209410002000000000FA
:1002D00010B5074C2378002B09D1FFF7D5FF054B4C
:1002E000002B02D0044800E000BF0123237010BDA2
:1002F0002014002000000000FC820010054B10B507
:10030000002B03D00449054800E000BFFFF7CCFFF5
:1003100010BDC0460000000024140020FC82001024
:10032000F8B5D0248025192000F074F82406AD0417
:100330000A4F0B4E65623800656101F007FDFA2037
:10034000C00000F0E9FE002300220021306806F022
:100350000DFBFA20400004F059FFECE7FC8200108E
:10036000A4360020F8B5D0268025094C094F360662
:10037000AD0401212068494206F0C4FD0128F8D1EE
:100380003800B56101F0E2FC642004F03FFFF0E7C3
:10039000A43600201083001030B583B001F014FFA4
:1003A000144800F0B9FE03220021012006F028FACB
:1003B000114B1860002819D0002501248022002349
:1003C0000E4952000E480195009404F0B5FA8022BF
:1003D00000230C4952000C480195009404F0ACFA3B
:1003E0000A4801F0B3FC04F085FDFEE7084801F07F
:1003F000ADFCFEE788130000A43600204483001003
:10040000210300105083001065030010608300106A
:10041000288300100123D0228340402112069362DA
:100420009361094A83009A181268C0005140C022A3
:100430000A4006498C4663441A60054B9C460523D6
:10044000604443607047C04604C0014004D001408E
:10045000004001408023DB051868000F7047C0464C
:100460000FB400B5084883B001F070FC049B002B6A
:1004700007D005A91800019101F0EEFA034801F038
:1004800065FC012001F000FB7883001088830010D8
:1004900010B50148FFF7E4FF8C83001070B5EFF34F
:1004A000108C72B60D4D2B68002BFCD0BFF35F8F04
:1004B0000724CB08C618C05C01230C40A3401C00D5
:1004C0000440034207D103433370BFF35F8F2C60B6
:1004D0008CF3108870BD1000FFF7C2FF2C0100D014
:1004E000F8B54746CE46884680B5EFF3108C72B615
:1004F000214D2C68002CFCD0BFF35F8F9A422CD882
:10050000D4080727055D061901241740BC402C427A
:100510001FD007210127894609E0D408055D061987
:100520004C4639001440A1400C00294211D0013240
:100530009342F2D201204042BFF35F8F00220E4B64
:100540001A608CF3108800280FDBC0BCB946B04697
:10055000F8BD2C4310003470EEE7BFF35F8F00232B
:100560002B608CF31088012040424346002BECD0D6
:100570000898FFF775FFC0462C0100D0044A107898
:10058000431CDBB2172B00D9102313707047C046F1
:10059000C00F002000B5054B83B001000093182266
:1005A0001F230348FFF79CFF03B000BD9C8300108E
:1005B0003C3200200021044B044ABFF35F8F02C38A
:1005C0009342FAD17047C046000100D0800100D0AC
:1005D000054B064A1360064A136053609360D3606C
:1005E00013615361936170478080808000E400E074
:1005F00004E400E01F2318401E3B8340002905D07F
:10060000C021044A490053501360704780220149B9
:100610008B50FAE700E100E001228240034B1B68A7
:1006200013405A1E9341D8B27047C04600E100E023
:1006300001238340014A13607047C04600E200E096
:10064000064B10309B688000C358054A00209B1A57
:100650002F229A424041C0B27047C04600ED00E0F0
:10066000C40F002070B50D00EFF3108672B60F4A6C
:100670001368002BFCD0BFF35F8F0D4B10309B68CD
:1006800084001B590B4A934203D09D4201D000F0D5
:10069000FBFF074B9B681D51BFF35F8FBFF35F8F5D
:1006A0000022024B1A6086F3108870BD240100D02E
:1006B00000ED00E0CD010010F0B557464E46DE4695
:1006C0004546E0B585B0060002911700EFF3108BA8
:1006D00072B6674A1368002BFCD0BFF35F8F00250A
:1006E000644B5D579A46002D00DAA4E06B00624C23
:1006F00003935B199B009846A146C1444B46524662
:100700009B79103613705D4BB2009B68019299582B
:100710000B1B2F2B34D95A4B994200D0A4E0039BDA
:10072000584A9C46584B6544AD00635343460233D8
:100730006519E418554B0121043B1B1B1B055B0D80
:1007400013436B80524BEF71AB80FF23AB71029B65
:10075000AB604B460B431900484B019A9B6899507C
:10076000BFF35F8FBFF35F8F0022414B1A608BF3A3
:10077000108805B0F0BCBB46B246A946A046F0BD05
:1007800001200A008243D379BB422FD845464E460A
:10079000130040491B1B5B415943090D3A4B6353FE
:1007A0003A4B02356519043B5B1B1B05354D5B0D50
:1007B0002B4373800426B446E0444444131F1B1BA0
:1007C0004C46A17102991B05A16049465B0D2B4364
:1007D000A380314BE77101431360BDE75800C01897
:1007E00080002018C679BE422BD902000623D356BA
:1007F000002BF3DA101D82462848804604267642F4
:10080000B446E14450464E46361A3005400D824605
:1008100056461C48957106439680039A9446654453
:100820001D4AAD00641922604246A371029BA2805A
:10083000E771A36090E700F027FF002553465D575E
:1008400054E7101D824690884005001584464046B6
:10085000D444664604302018301AE0260005400DC6
:10086000360230438046C9E700F00EFF57E7C04626
:10087000240100D0F5360020C40F002000ED00E078
:10088000CD01001000E0FFFF00A1FFFFF40F0020EA
:1008900001BDFFFFAAAA00000148804701BD00007A
:1008A00070B501240443EFF30581EFF3108C72B6A9
:1008B000214A1368002BFCD0BFF35F8F1F4B05004C
:1008C0001F4AED1A6D416A43120D1E4D8900AE6834
:1008D00052B27658A6421CD00621595691421CD0DD
:1008E00012215956914222D01E215956914220D0B0
:1008F0002A2159560324914210D0134B19781A70AB
:100900008171BFF35F8F00220B4B1A608CF310884C
:1009100070BDAB680D4C5C50EFE700246100091915
:1009200089005B18FF21997109499980E5E7012445
:10093000F4E70224F2E7C046240100D0C40F0020EF
:10094000AAAA000000ED00E0F5360020CD0100105D
:1009500001BDFFFF00B5074B83B0010000930022EB
:1009600005230548FFF7BCFD002801DB1F23181AEB
:1009700003B000BDB8830010F9360020024B9C463E
:10098000614489000160704740000034F8B5134DA0
:10099000134E2C00FF27B5421ED22368002B0FD028
:1009A000FFF7ECFD01002800FFF7E8FFA780BFF389
:1009B0005F8F0834B4420FD223682500002BEFD19B
:1009C000FFF7DCFD01002800FFF7D8FF2771BFF318
:1009D0005F8F0834B442EFD3F8BDC0468C100020BE
:1009E0009410002010B50400FFF7C8FD010020009E
:1009F000FFF7C4FFFF232371BFF35F8F10BDC04615
:100A000010B504000120FFF7C5FD044B9C4660446F
:100A100080002060BFF35F8F10BDC04640000034EF
:100A2000034B9C46614489000160BFF35F8F7047B0
:100A3000400000340A4B1968EFF3108072B60A6860
:100A4000002AFCD0BFF35F8F1B68BFF35F8F0022CB
:100A50001A6080F3108840BF002000217047C04614
:100A6000D4360020F0B5DE4657464E464546E0B542
:100A700085B0EFF30582032313409A00110003921F
:100A8000B64A5258904601229A409146B44B1A6099
:100A90004B46B4484363434608229B5E9A46002B6C
:100AA0003DDA43469B881BB2002B00DBA1E04346A6
:100AB0009B79002B00D0F3E0434608241C5F002CF8
:100AC00023DB42465269630094461B19DB006344F2
:100AD0009C68DD68631C00D10FE1A248039984463D
:100AE0006144826A0B69A61A9B1A9E4215D34A4634
:100AF000036A1A4211D09B4800F0B0FB241A8D41C2
:100B0000002D02DCC4D1002CC2D040BF05B0F0BC27
:100B1000BB46B246A946A046F0BD0C61EBE7424693
:100B200052695B0093465344DB009B445B469E68DE
:100B3000DF6800F093FB801BB9410029B1DB002F77
:100B400000DAE5E05B46884A1B69934200D1D8E0B1
:100B500041465A460820085E5288000410435A460F
:100B60005169984704000D0023002B4300D1CFE0CA
:100B7000002D00DBE8E0361BAF4134003D005B4652
:100B80009C60DD600021595E002900DA89E7434658
:100B90005B6922009C462B0048004018C00060445E
:100BA0008668C768921BBB41002B00DA79E7434691
:100BB000664602000094019519810CE07B00DB1968
:100BC000DB00F318009801999C68DD68001BA941BF
:100BD000002904DB1A000023D75E002FEEDA5B4603
:100BE0001F805346138043469B881BB2002B00DABC
:100BF0005DE743461A69EFF3108172B61368002B64
:100C0000FCD0BFF35F8F43469B8842461BB29A4697
:100C100001235B4293801369BFF35F8F00221A6048
:100C200081F310885346002B00DA40E743465B69A6
:100C30009C46082343449B4653465F004346574423
:100C4000FF0008229A5E67445E46BC68FD68002A81
:100C500019DB3B000094019567469C4604E01E00AA
:100C60000023F25E002A0BDB0098019953009B18C9
:100C7000DB00FB189C68DD68001BA9410029EEDA47
:100C80006346BC461F005346338000217B5E3A809A
:100C90009A46002BD0DA43469B79002B00D10BE714
:100CA000002342469371434646460821595E083662
:100CB0004B1C00D129E747468C46556902E00600E7
:100CC0004B1C17D04B005B18DB00E8180A00E95EEC
:100CD00043881BB2002BF2DA01235B42DC178360EE
:100CE000C4606245ECD031803B89944603803A81F0
:100CF0004B1CE7D1B8466446E1E66B1C00D0ECE63D
:100D0000F9E65B465C69200023699847002821D1F9
:100D10005B4642461B8813811269EFF3108372B65B
:100D200011680029FCD0BFF35F8F424659465288B4
:100D30000A804246514651801269BFF35F8F0021FD
:100D4000116083F31088ACE6064800F087FA241897
:100D50004D4114E76568246806E7C046B8360020B0
:100D60003C70054000400540650A001070B52E4CEF
:100D70002569002D04D00A212C48FFF7FFFD70BD26
:100D80002B4E0321300000F05FFAE660FFF7F6FB20
:100D9000284B03229C46D02322701B061B6801218E
:100DA0006370254B6044A3600F2380002061022004
:100DB000638063694942A1801980023119864731F5
:100DC0001D83585218315A5275325C399952183273
:100DD0000131995218320131995218320131995228
:100DE000083518329D5202311832995218320131A9
:100DF00099521832013199521832013199521832F0
:100E0000013199521832013199520C4B0C49DC6076
:100E100001303562FFF726FC01210320FFF7EAFBD2
:100E2000084B1D60A7E7C0460C100020D4360020F8
:100E30000040054040000034FFFF1000B83600209D
:100E4000650A001038600540004870470C1000200B
:100E5000F8B51F0008AB1B7804001600002B07D163
:100E600000F004FA32003B00121A8B41002B4CDBDD
:100E70002269EFF3108072B61368002BFCD0BFF329
:100E80005F8F62690223E15E94464B005B18DB00D2
:100E90006344002901DB1A8862802269BFF35F8FF7
:100EA0000025156080F31088002930DB069A9E60CB
:100EB000DF601A61079A5A615A8801325204520C53
:100EC000161C002A1FD0B0B20A045E8010432669A7
:100ED000EFF3108572B63268002AFCD0BFF35F8F43
:100EE000A2881A80A1802369BFF35F8F00221A6055
:100EF00085F31088074923788C4601329A40E368CD
:100F000063441A60F8BD0126DDE70020FAE70120FE
:100F10004042F7E73C20000070B5C646010000B52E
:100F20000469EFF3108C72B620680028FCD0BFF380
:100F30005F8F02200D5E48696C0080466419E400F2
:100F40004444002D01DB208848800869BFF35F8F8F
:100F5000002606608CF31088002D30DBE360638888
:100F60000598013320615B0406985B0CA260606108
:100F70001A1C002B21D090B22B04628018430A69FE
:100F8000EFF3108672B61368002BFCD0BFF35F8FAF
:100F90008B8823808D800B69BFF35F8F00221A60DE
:100FA00086F310880B7801329A40CB6805498C464D
:100FB00063441A6040BCB04670BD0122DBE70120EB
:100FC0004042F7E73C20000010B543890A149342E1
:100FD00033DD53009B184269DB0094460469634487
:100FE000EFF3108C72B62268002AFCD0BFF35F8F3B
:100FF0005A88090494B2090C8A4208D00369BFF3E5
:101000005F8F00221A608CF31088002010BD8022B0
:10101000120214435C80012302698371BFF35F8F66
:10102000002111608CF31088054902788C469340AA
:10103000C268012062441360E8E70020E6E7C0468A
:101040003C20000040787047F0B504000D000626F3
:101050007642F717C64636196F4100B582B08F4207
:1010600014D811D000F002F932003B00121A8B4163
:10107000002B15DC002B44D02000290000F000F9E3
:1010800002B080BCB846F0BD8642EBD900260027EE
:1010900000F0ECF832003B00121A8B41002BE9DD26
:1010A00000F0E4F832003B00121A8B41002B0ADBFF
:1010B00000230193144B3200009314483B00FFF7C8
:1010C0002BFF0028D8DBB0460026BC46104A114F43
:1010D0007B6A9C4504D8B96A8845CDD99C45CBD15B
:1010E0001168EFF3108072B60B68002BFCD0BFF3D1
:1010F0005F8F1368BFF35F8F1E6080F3108820BF7F
:10110000E6E7002AB8D0CBE7350A00100C10002023
:10111000D43600200040054070B5060000F0A6F867
:10112000FA2204000D00002330000021920000F09C
:1011300015FC00196941002902DBFFF785FF70BD2E
:10114000012001494042F8E7FFFFFF7FF0B5CE469E
:10115000474680B504000D0083B0EFF30587002FEC
:101160000DD0364A0020536A8B4203D3926A013075
:10117000A24250D303B0C0BCB946B046F0BD304B1C
:101180009846DB689946434648461E7800F066F864
:101190000B00494602000436B600715820008E1A32
:1011A0002900801A99418F4211DC0ED020BF234ABA
:1011B0000020536AAB42DDD3926A0130A242D9D2F9
:1011C000E81A421E9041C0B2D4E78642EED900F040
:1011D0004DF822002B00121A8B41002B20DB00233C
:1011E0000193184B2200009340462B00FFF794FE1A
:1011F000011E15DD114B2E005A6A95421CD89B6AC0
:10120000A34217D34046FFF7DFFE0C4A0020536A83
:101210009E42AFD8D0E7581A421E9041C0B2A9E70B
:10122000064A0020536AAB42A4D3926A0120A2422C
:10123000A0D2C5E79542E5D120BFE3E700400540D5
:101240000C100020350A001010B5024A0248FFF7C2
:1012500025F910BDD4830010403200200300416AFC
:101260000A00986A596A8A42FAD17047034B596A50
:101270000A00986A596A9142FAD1704700400540C5
:10128000064A536A9942FCD807D1044B02E05A6AD5
:10129000914202D19A6A8242F9D3704700400540D8
:1012A000F8B5DE464E4657464546E0B58B46050046
:1012B0000A991800160000F0C5FA0A9B6C001F027C
:1012C000324B64199C46A4006444636881469F4283
:1012D00000D967602B1FDBB29846012B30D9C023A1
:1012E00080229B01E31812011A60294BAD00595965
:1012F0009A4600291BD1226876017240E02680239D
:10130000164042465B01E3181E60012A30D9802353
:1013100080229B01E31812011A6053464A46676017
:101320005A51F0BCBB46B246A946A046F8BD586922
:1013300000F088FA431C5800C0180338FDD2DAE7E1
:101340005B46012BCBD1C02303229B01E3181A601B
:10135000023AA3681A42FCD0E02322687601564084
:101360001E4080230A4A5B019246E3181E60AD00CE
:101370005A462168514003220A401A6001225B4606
:101380009A40A3681A42FCD0C1E7C04600800040E2
:1013900044320020F0B546464F46D646C0B51F0041
:1013A000344B44009C462418A40064446368884677
:1013B0001600FF2B02D880235B006360031FDBB2A3
:1013C0009A46012B30D9C02380229B01E3181201D9
:1013D0001A60294B85005959994600291BD122686A
:1013E00076017240E0268023164052465B01E318E6
:1013F0001E60012A30D9802380229B01E31812014C
:101400001A6080235B0063604B465F51E0BCBA46C4
:10141000B146A846F0BD586900F014FA431C5800C4
:10142000C0180338FDD2DAE74346012BCBD1C023E5
:1014300003229B01E3181A60023AA3681A42FCD007
:10144000E0232268760156401E4080230A4A5B0151
:101450009146E3181E6085004246216851400322F0
:101460000A401A60012342469340A2681342FCD00E
:10147000C1E7C0460080004044320020014B80009C
:10148000C058704744320020F8B5040020481D00C1
:1014900017000E0000F0D6F90100380000F0D2F974
:1014A000069B29041B0319432368002B1EDB194BE1
:1014B000194DE21853425A4180235B019C461203A6
:1014C000164B62441A60164B1A6017002B689F4334
:1014D000FBD1144B2660E2182123A060136023681F
:1014E000002BFCDA0823E1601360F8BD3F2322687B
:1014F0001340B342DBD1A3681B051B0D8342D6D139
:10150000EE22E368D20213408B42D0D1EDE7C04611
:10151000001BB7000040FDBF08C0004000E00040D5
:1015200000F000400430000010B5140080221B4B76
:10153000D2051A6000281AD00123194A1843194B02
:10154000DA61194A42401A62596298628022134B4A
:10155000D2051A601549164A1160E022D2041A60B9
:10156000002C07D18022134B12061A6010BD0D4BC0
:10157000D861EBE763011B1B9A008023121912014B
:101580005B049A4200D30C4A0C4B1A60054B5A601C
:101590008022084BD2051A60E8E7C04600B005403B
:1015A000D3C007B0008005402D3FF84FFCFF01007D
:1015B0000820014000A00540FFFFFF00A8360020E2
:1015C0008023024A9B000B43D36270470080054092
:1015D000142310B50100188804331B88984710BDE8
:1015E000162310B50100188802331B88984710BDD8
:1015F000F8B54746CE4680B50F1E19D0142399463C
:10160000043304000025012698464B4618884346BB
:1016100021681B88984701C4431E98410135404208
:101620000640AF42F1D13000C0BCB946B046F8BD6B
:101630000126F8E7142370B50400188804331B88CA
:101640000D000549984703000020002C01DB013004
:10165000A04029009847C04655420000AA23064AE8
:101660001B0113608D235B00D3600449044B196098
:101670005368002BFCDA70470040024000B0FA00CB
:10168000006002407047C04610B50148FEF7E8FE12
:10169000F883001070B5074D074EB54209D20024FB
:1016A000013E761BB60808CD984723000134B342AB
:1016B000F9D170BDB8820010F4820010054B064AC3
:1016C00006491A60064A074B1A6010000B689843D7
:1016D000FBD1704700E00040BFCDFBFE08C00040DA
:1016E000FE7F3C0000F00040044BDB6C002B03D17C
:1016F0008022034BD2021A607047C046000011508E
:101700004C201150044A054B1A60054A1368DB014E
:101710008033FBD17047C046FFFFFF0100F000405F
:1017200008C000404022034B9A675A671A67DA667E
:101730007047C04600F0014010B5FEF73BFF10BDFA
:1017400070B5044D044C2800C022A16800F076F961
:10175000A56070BD0000002000ED00E0002310B582
:10176000294C82B0A367FFF779FF0122274B1A604B
:10177000636C012BFCD10322254B1A60224A936B28
:10178000012BFCD1013300930121224A224804336A
:10179000FFF77AFE052301210093204A2048FFF736
:1017A00073FE0022022104201E4BFFF7F3FD0022EE
:1017B000012105201C4BFFF7EDFD00220021072031
:1017C0001A4BFFF7E7FD002200210820174BFFF717
:1017D000E1FD8023DB000093002200210920134B50
:1017E000FFF75EFD0022104B00210620FFF7D2FD1F
:1017F0000420FFF743FE0E4900F024F8010000200A
:10180000FFF7DEFE02B010BD008000403CB000409B
:1018100030B00040002F685900800240008C86479D
:1018200000C00240001BB70040597307006CDC0287
:1018300040420F0001480421014B1847301000209E
:10184000F1150010114A936F9B0813D21066516670
:10185000002905D0FFE7FFE7FFE7516F106F7047E2
:1018600004B5002801D00020C04306F0E5FC0021AB
:1018700004BDC046F0B5146E556E576F166FFFF776
:10188000E5FF1466556657671667F0BD000000D087
:10189000132370B51D78012D19D014DD1E48FFF7F4
:1018A0009FFE06001D48FFF79BFE1D4C8022310065
:1018B000200000F0C3F8022D06D01A48FFF788FE7A
:1018C000194B186070BD164C184BA364F5E7174B05
:1018D000134C23606360A360E36023616361A361D1
:1018E000E36123626362A362E36223636363A363CE
:1018F000E36323646364A364E36423656365A365AE
:10190000E36523666366A366E36623676367A3678D
:10191000E367A364D1E7C046534400005346000088
:10192000201200204C330000D03600203119001066
:1019300007B5604601880A0A0230DF2AFAD1C9B227
:10194000820804D3028840880004104300E0006845
:10195000014A5050039007BD2012002051434343D9
:10196000C9188C46110C83B24B4310B4040C61436C
:1019700092B280B2504362431C041B0C001910BC8D
:1019800059411304120CC0185141614470470000C2
:10199000132310B512481C78FFF722FE0100012C1A
:1019A0000AD003DD80220F4800F048F80E48FFF708
:1019B0000FFE0E4B186010BD0A4C5422200000F0A0
:1019C0003DF80B4B6365A365E36523666366A36619
:1019D000E36623676367A367E3672362E361E5E781
:1019E00053460000201300204C330000D036002066
:1019F000F519001007B5604601880A0A0230DF2A8F
:101A0000FAD1C9B2820804D3028840880004104386
:101A100000E00068014A5050039007BD20130020E9
:101A200001480421014B184740100020F115001017
:101A3000014B1B681847000040100020014B5B68F9
:101A4000184700004010002010B5002800D110BD3C
:101A500000F030F9FBE7C04610B5094A03001468EE
:101A600084B0002C08D0012200910648524203A9FC
:101A7000A047012004B010BD00F068F90020F9E78C
:101A8000A0360020491A001000BEFDE710B5FFF790
:101A9000FBFFC04670B5FFF7FDFD074D074EB54291
:101AA00009D20024013E761BB60808CD98472300D2
:101AB0000134B342F9D170BDF4820010FC820010F1
:101AC000030010B5080011001B68984710BDC04600
:101AD000F0B546464F46D646C0B5437D80460E001B
:101AE0001700002B46D0002A3FDD4B1E9946244BA1
:101AF0000125002400209A460DE04B461B5D0D3B5E
:101B00005A425341325DDBB20A2A0BD02B0001341A
:101B100001359F421ADD002CEFD14346325D1B7D1B
:101B20000A2AF3D1002BF1D1A04204DA4346211A4C
:101B30001B6830189847434650461B680221984757
:101B4000013428002B0001359F42E4DC874204DD8C
:101B50004346391A1B6830189847F619013E337806
:101B60000D3B5A42534142461375E0BCBA46B1465A
:101B7000A846F0BD0368110030009847F5E7C0465D
:101B800098840010F0B5DE4657464E464546E0B50F
:101B900085B017001C0006000D00FFF767FB00234F
:101BA000314A12184B41002B59DB304908008A4654
:101BB00006F062FB01906B1C03D1300006F0EAFADC
:101BC0000500002C26D12A4B98462A4B1C68002C75
:101BD00015D0002F21D1284F02E02469002C0ED00F
:101BE0002368002BF9D03B68002B01D0A342F4D12D
:101BF00020002A003100C0472469002CF0D1019B4D
:101C0000002B28D1280005B0F0BCBB46B246A9463F
:101C1000A046F0BD194B9846D7E7174B994602AB43
:101C2000DF1D0A239B4602E02469002CE7D02368CD
:101C3000002BF9D04B461B68002B01D0A342F3D1F7
:101C40002A0031002000C0475B46012239002000F5
:101C50003B70C047E8E7504606F0DEFAD2E70122C3
:101C6000074B5242A1E7C04640420F008C100020B3
:101C7000C11A0010943200209C320020D11A0010AA
:101C8000FFFFFF7F0A4A1368002B05D10CE01A0002
:101C90001B691032002B07D09842F8D1002902D1DD
:101CA00003691360016170470029FCD01060FAE7F6
:101CB00094320020F0B5CE46474680B583B06B46DF
:101CC0000600DD1D2870FFF7D1FA00231A4A12180A
:101CD0004B41002B2BDB19490800884606F0CCFA53
:101CE000174B81461C68002C14D0164F02E0246963
:101CF000002C0FD02368002BF9D03B68002B01D0BB
:101D0000A342F4D1200001222900FFF7E1FE24695B
:101D1000002CEFD14B46002B05D1300003B0C0BCE6
:101D2000B946B046F0BD404606F076FAF5E7012226
:101D3000054B5242CFE7C04640420F008C100020B6
:101D4000943200209C320020FFFFFF7F70B504001A
:101D500006F020FA01230100050001222000FFF710
:101D600011FF084B1C68002C06D06368002B05D0BF
:101D700098472469002CF8D1280070BD2469002CF4
:101D8000F3D1F9E7943200207047C0460022014B9E
:101D90001A707047F63600204B790020FF2B0BD1CC
:101DA0008B79002B08D1CB79012B05D1082A03D9D7
:101DB0008A78024B09301A707047C046F636002008
:101DC0000120704710B5012909D1154953791079BF
:101DD00009781B0203430020994202D010BD012064
:101DE000FCE75378012B08D0022BF7D100206422A6
:101DF0000021FFF799FB0120F0E7D37891781B02CF
:101E00001943DB0507D54A0A100001231A407E3327
:101E10001940FFF70FFC01204A0A4042F5E7C0468F
:101E2000F636002000487047BC84001070B50500ED
:101E300014000120012909D153780020012B05D17C
:101E4000637912791B021343072B00D070BD210068
:101E50002800024A9F3301F061FAF7E7E08400109E
:101E600001230370004870479C84001048780B7869
:101E70008A7800021843120410439622CB7810B5DA
:101E80001B060343D200934200D010BD0022012064
:101E900011004042FFF7CEFB024B1860024B196065
:101EA0007047C046343200203832002010B5024B53
:101EB0001878FEF7BDFB10BDF7360020154B70B546
:101EC0001A68002A22D0EFF3108172B61068002839
:101ED000FCD0BFF35F8F00220F48596002701B686F
:101EE000BFF35F8F1A6081F31088002400250B4E2A
:101EF0003078FEF791FB002804D10024002529004A
:101F0000200070BD3078FEF793FBF8E7FA24002537
:101F1000A400ECE7B0360020F8360020F7360020A9
:101F200070B5040000200E0001F022FB002835D01F
:101F3000002001F033FB002830D0FFF797F9002391
:101F4000184A12184B41002B24DB174D280006F0CD
:101F500093F9002822D0002001F00AFB00280BD1C1
:101F6000012000210324404200F00AFD64422800C1
:101F700006F052F9200070BD002001F00FFB002890
:101F8000EED021003200002001F014FB041EEED13F
:101F9000033CECE70122054B5242D6E7032464429E
:101FA000E8E7C04640420F00D8360020FFFFFF7F21
:101FB00010B5FFF75BF900230E4A12184B41002BB6
:101FC00013DB0D4C200006F057F900280CD001203F
:101FD0000021404200F0D4FC002001F035FB002835
:101FE000F5D1200006F018F910BD0122034B524232
:101FF000E7E7C04640420F00D8360020FFFFFF7FD2
:10200000F8B5DE46574680B505000C00FFF72EF9FF
:102010000023364A12184B41002B5ADB3449080082
:102020008A4606F029F9002803D1C0BCBB46B24657
:10203000F8BD002001F09CFA00284ED00026002CAC
:1020400043DD2C4B9B4614E0A919002001F038FB1E
:10205000070001200021404200F092FC002001F026
:10206000F3FAFFF703F9234BF61918605960B442ED
:102070002BDD002001F046FBA71B0200B84200DD6B
:102080003A00002AE0D101200021404200F078FC13
:10209000002001F0D9FA002001F06AFA002814D0DB
:1020A000002001F02FFB0028E1D1FFF7DFF85B46AD
:1020B0000F001A685B68002184460F4812184B41D4
:1020C0009F4202D8D3D19445D1D9504606F0A4F806
:1020D000ABE70122094B5242A0E700200021054B4B
:1020E00018605960504606F097F89EE740420F008E
:1020F000D83600201812002020A10700FFFFFF7F24
:1021000030B52A4C85B00021200006F09DF800284B
:102110001CD1274B1A68002A16D0EFF3108172B633
:1021200010680028FCD0BFF35F8F0124214859605C
:1021300002781B68D2B20470BFF35F8F0020186072
:1021400081F31088002A17D005B030BD012000218E
:10215000404200F015FC002001F020FA05002000AC
:1021600006F05AF8002DEFD0134B1B68002BEBD074
:10217000124A10689847E7E7FEF766FE0400FFF78B
:1021800075F8FA220023920012184B41002B09DB4C
:102190000121029100210191094920000091FEF7DF
:1021A00057FED1E70122074B5242F1E7D836002013
:1021B000B0360020F83600203432002038320020BB
:1021C000BD1E0010FFFFFF7FD02310B51B0684B09B
:1021D0001C68FEF739FEFEF735FFA04202D0002052
:1021E00004B010BD294B002100201B7801F07EFDBA
:1021F00027480368002B41D00120FEF7ABFBFF23EB
:10220000244C254920701840FEF72CFA2078012133
:10221000FEF7F0F90520FEF713FA002821D1082275
:1022200000211E48FFF704FCFEF70EFE0400FFF736
:102230001DF8FA220023920012184B41002B20DBDC
:102240000121029100210191154920000091FEF722
:10225000FFFD0028C3DB13480121FFF713FD012018
:10226000BEE70120FEF796F901000C48FEF7D8FB07
:10227000002205200C49FEF71FFAECE7FEF7B2FB3F
:10228000BAE70122094B5242DAE7C046E487001060
:10229000D8360020F736002001210010B03600208B
:1022A000BD1E001050100020AD1E0010FFFFFF7F6C
:1022B000004870472886001000487047D4850010F9
:1022C00070B5040017480378002B21D0002C06D1EC
:1022D000C1241548154BA4004380048070BD052C13
:1022E0001DD8134B1048A400E558811C002304E0BE
:1022F00001330A800231132B0ED0EA5CDCB2002AD3
:10230000F6D1C0230134E4B264009B001C43E4E72F
:10231000112100F017F8D9E7CA24A400DDE7002056
:10232000DCE7C046E03600206C32002009040000E3
:102330003C86001010B5024800F0D8F810BDC04629
:10234000C836002030B54B1E012900D1A7E0664AEF
:1023500011780D112C0030349F2900D9A2E00470AF
:10236000012B00D1BEE00F21147821400C00303445
:10237000092900DD98E04470022B00D1B2E05478C6
:102380002511290030319F2C00D990E08170032B5A
:1023900000D1A7E00F2121400C003034092900DDD5
:1023A00087E0C470042B00D19CE0947825112900AB
:1023B00030319F2C00D97FE00171052B00D191E0D5
:1023C0000F2121400C003034092900DD76E04471F2
:1023D000062B00D186E0D4782511290030319F2CBE
:1023E00000D96EE08171072B00D17BE00F212140E5
:1023F0000C003034092966DCC471082B00D171E06F
:1024000014792511290030319F2C5FD80172092BD6
:1024100068D00F2121400C003034092958DC447267
:102420000A2B5FD054792511290030319F2C52D8C6
:1024300081720B2B56D00F2121400C00303409291A
:102440004BDCC4720C2B4DD094792511290030310E
:102450009F2C00D9073101730D2B43D00F21214050
:102460000C003034092901DD37310C0044730E2B88
:1024700038D0D1790C11220030329F2900D907328F
:1024800082730F2B2ED00F220A4011003731092AF8
:1024900001DC30321100C173102B23D01030002327
:1024A000037030BD07345AE737310C0063E707315A
:1024B0006CE737310C0074E707317DE737310C00EA
:1024C00085E707318EE737310C0095E707319DE747
:1024D00037310C00A3E70731AAE737310C00C4728B
:1024E0000C2BB1D1C018DAE7C836002030B5002572
:1024F00089B004000922002101A80095FFF798FA8D
:102500000922002105A80495FFF792FA4B236A4699
:102510006846137004A90D2205F076FE15210822E5
:1025200020006944FFF78AFA09B030BDF8B500F021
:1025300045F90C23194DFF22AB6705201849FEF71A
:10254000BBF8184C402200212000FFF771FA402709
:10255000002301262121144A66702783A26013609C
:1025600063545F31618445396354104A1049636094
:10257000E2602787A1620B606362E26205F06CFE95
:1025800080239B052E64EB6490230A4A0120EA50C5
:102590008022094B5202DA64F8BDC0460000115097
:1025A000E9040020A03200208400105000011050E7
:1025B0008000105010D001000020115010B50121F2
:1025C0000520FEF717F810BD10B5002200210248C3
:1025D00000F014F910BDC046C0320020044B197041
:1025E000002904D080219023024A8902D1507047EB
:1025F000F2360020002011500B785B0602D14B7898
:10260000052B00D070478A78014B1A60FAE7C04664
:1026100000001150F0B5C646C87800B58007830F9A
:102620001800012B61D08F780C794B797F211B0228
:10263000394023434E00FC09334D32195201AA1888
:10264000977001276740577000275B055B0DD770B7
:102650001383D076B846CA00012C32D02B4FBC462B
:102660008F016244BC46AC446746BA604746176077
:10267000002932D0264AC900904662464144516042
:102680003F223F339343022838D0224937190A6842
:102690007F01D3180B602049EF19FA608B422FD8C5
:1026A000341964012D19EB7E1C499B064A401343E3
:1026B00080220120120613436A68136080BCB8466A
:1026C000F0BD174FBC468F016244BC46AC44674620
:1026D000BA6247461760002909D1002364012D1909
:1026E0006B60104B0120EB60E8E70020E6E70B4A47
:1026F000C9009046624641445162C1E75B00C4E7AD
:10270000FEF7C2FFFA68CBE7A03200208400105029
:1027100004001050AC360020FF0F10500000105085
:10272000800010500001105010B505F095FD10BD4F
:1027300010B57F200C0020404000E4091100001972
:102740001A00034B4001C01800F058F8012010BDDA
:10275000A03200207F22130010B50B400A420BD09C
:10276000C90980225800401806494001401812014A
:10277000002105F099FD10BD02220348C909521A33
:102780008266EEE7A0320020002011507F22100068
:1027900010B508400A4200D110BD0023C90940000D
:1027A000401804494001081800220349C37005F08D
:1027B0007BFDF1E7A0320020FFF7FFFF80220A4BEC
:1027C000520410B51A60094B09491A6010000B68D1
:1027D0009843FBD18022002152010648FFF728F9D7
:1027E0000922054B5A6710BD00E0004000F0004090
:1027F00008C00040000010500000115070B5837EEA
:1028000004000D001600002B17D10023E3820133D2
:102810002000A682A376256105F006FD002804D0DD
:1028200080219023084A8902D150200005F0E4FC61
:10283000002805D00123237770BD05F02DFDE4E7C6
:10284000200005F021FDF7E7002011507047C04639
:102850007047C04600207047002070477047C04650
:102860007047C0467047C0467047C046024B587814
:10287000431E9841C0B270474C2D0020024B18787F
:102880004007C00F7047C0464C2D0020F0B54646AB
:102890004F46D646C0B52F4B814698461B780E0052
:1028A0000124FF2B43D1002940D0002154222A4883
:1028B000FFF7BEF80022294C294B20001A70FEF7C2
:1028C00091F8284B1C60284C20001430FEF798F833
:1028D000200001F0F7FD254B254D1C60254B002BFA
:1028E00004D02800FFF7BCFA234B186023490024CA
:1028F00000238A462A78204F10E03A686301944604
:102900006344002B12D05B68002B0FD098472A78C5
:102910000134E4B2511C2300A1420EDBA242ECD8E8
:102920009B1A5B0153445B68002BEFD1002420000D
:10293000E0BCBA46B146A846F0BD43464A4631001F
:1029400048461A70FFF7F2FD041EEFD04846FFF725
:1029500035FEECE7841000204C2D0020442D002093
:10296000F3360020A02D002068100020A42D0020A8
:10297000F1360020611E00109C2B002058870010AB
:10298000F0B5DE4657464E464546E0B5C44B8BB0E3
:102990001B78FF2B00D12EE1C24BC34D9A4607ACEA
:1029A0002E687269EFF3108172B61368002BFCD0A9
:1029B000BFF35F8FB1613000210001F0C5FB726988
:1029C000B369BFF35F8F0021116083F31088002883
:1029D00000D110E16378082BE2D852469B00D3580F
:1029E0009F466368002BDBD0A0689847D8E77F2319
:1029F0002179AE4E0B405800CA093618B61832007D
:102A0000012730321079B843107110790337B84379
:102A10001071002B00D1F7E0A54A337D1278934264
:102A200000D3E5E0A34A5B011268D318002B00D164
:102A3000E1E09E6962792078A368B047B0E79E4ADA
:102A40001378002B00D1D6E01378013BDBB2137072
:102A50001378002BA4D10122944B01211B789348B9
:102A60001343924A914E13703423D25C8A43C2546A
:102A7000C25C04208243F2540133F25C8A43F25474
:102A8000F25C8243F254237800209B4600F0AEFCB7
:102A9000602223791A40602A0DD0402A00D1BEE07E
:102AA000DB06DB0E012B00D10EE1022B00D1D0E0C2
:102AB000002B00D1BFE020780021FFF74BFE8021E2
:102AC0002078FFF747FE6BE7784E3378DB0700D4BA
:102AD00066E7FFF7C9FE63E7744BDB78DB0700D4DA
:102AE0005EE76068FFF7B4FE5AE7704E3378DB07A5
:102AF00000D455E730780007C00FFFF7B3FE4FE76B
:102B00006E496B4E23788B466A4998468946310058
:102B10003278002346460027884611E04A4612686C
:102B20007B0194466344002B6CD0DB6830009847EF
:102B300043461A780137FFB2511C3B008F4241DCFB
:102B40009742EBD39B1A5B015B44EEE75B49584E1F
:102B500023788B46574998468946310032780023BE
:102B600046460027884611E04A4612687B01944693
:102B70006344002B21D0DB683000984743461A7825
:102B80000137FFB2511C3B008F4205DCBA42EBD843
:102B90009B1A5B015B44EEE7444E54220021300057
:102BA000FEF746FF1022FF21301DFEF741FF3000E7
:102BB0002022FF211430FEF73BFF00F00DFCFFF751
:102BC0004FFEEDE6394E542200213000FEF730FF73
:102BD0001022FF21301DFEF72BFF30002022FF21A5
:102BE0001430FEF725FF00F0F7FB2379B370D7E62A
:102BF000501C98420EDA0BB0F0BCBB46B246A94658
:102C0000A046F0BD294EEEE762792078A36800F077
:102C100001FCC5E69B1A294A5B01D31809E728483D
:102C200000F0E4FB0121584608AAFFF7FFF800284E
:102C300000D0B5E63FE7202A00D14EE1002A00D0BF
:102C400039E76379092B00D935E71E4A9B00D35831
:102C50009F467023217A0B4200D02CE77F26CB09B8
:102C600098460E40114B76009B1943441F7D104B34
:102C70001B789F425ED3581CB84200DA49E1FF1A24
:102C80000E4B7F01DF19002A00D146E1786900F080
:102C9000ADFB012158467B6908AA9847C7E7C046A3
:102CA00084100020B0860010A42D00204C2D0020A0
:102CB000F13600209C2B0020F336002058870010AE
:102CC0002D1E0010D4860010237A0F2B00D9F2E6B7
:102CD000D64A9446D64A63441B791278934234D339
:102CE000511C994200DAE6E6D24E9B1A5B01F618B7
:102CF000706900F07BFB01215846736908AA984768
:102D0000002800D04CE66022160023791E401A42AB
:102D100000D0D0E663790A3B012B00D9CBE600F066
:102D200065FB63790A2B00D150E1584608A900F0F1
:102D3000DDFA35E6C04B7F011B68DF19002A00D1A0
:102D4000EBE0002F00D1B6E6A0E7BB4A5B011668B6
:102D5000F618002E00D1AEE6CAE7B44BA7795B782F
:102D60009F42E2D0B14B5B78002B00D06AE1AF4BC1
:102D70005F70002F00D155E1781EC0B2FFF79CFABA
:102D8000002800D14AE143780493022B00D045E1AA
:102D90000121C279931152110B400A4012015B01CB
:102DA0001343A24A2F3112788A4313439F4A137068
:102DB00009239946C37882781B021343C3180293F0
:102DC0009D4B814498464F46029BBB4200D806E18A
:102DD00001227B7800920B2B04D1FB7800933B7887
:102DE000FF187B78042B00D018E1029BB946DB1B4F
:102DF0009BB203938E4B1E7800231F0001931BE0B0
:102E0000424612687B01D618002E00D106E14946E1
:102E10005846039A336998470590082803D9039ABE
:102E2000824200D3DEE0824B01371E78FFB2731C72
:102E300001979F4200DDF1E0BE42E1D8019B9E1B5D
:102E40007C4B76019C466644E1E7784B06AA5B78AA
:102E5000023213705846012308A900F05FFA9FE57B
:102E6000E088030AC0B20F2B00D924E673499A0008
:102E70008A58974608A800F0BFFA5846A179FFF78C
:102E8000A3FB0222694B1B781343684A137087E542
:102E9000E388012B00D00EE60822644B1B78934395
:102EA000624A137041E70220604B197806AB9A1C06
:102EB0008B068908DB0F01400B4313805846022321
:102EC00008A900F02BFA6BE5E388012B00D0F2E5AE
:102ED0000822564B1B781343E2E7237A0F2B00D9C5
:102EE000E9E5524A9446524A63441B791278934268
:102EF00027D2514A5B011668F618002E00D1DAE598
:102F0000706900F073FA01215846736908AA98475E
:102F10008DE60027002A00D0CDE50222637999468C
:102F20009343012B16D04B46002B00D0C3E53F4BFB
:102F300006AA9B19434430331B7902329B07DB0FEF
:102F4000BBE7511C994200DAB5E53A4E9B1A5B018A
:102F5000F618D5E7E388002B12D14B46012B24D07D
:102F6000374B1878FFF7F6FB0221304B9B1943448F
:102F700030331A790A4301211A711A790A431A71F6
:102F8000002F00D10CE5786900F030FA7B6908AABF
:102F9000012158469847002000F028FA3523234A9B
:102FA000D35CDB0700D5FBE4BFE6254B1878FFF7C1
:102FB000EDFB02211D4B9B19434430331A798A43A0
:102FC00049461A711A798A431A71D9E706AB9A1CD5
:102FD0005846012308A9167000F0A0F9E0E4FFF7B5
:102FE0003DFCA2E63B004F469946009B012B00D1D9
:102FF00089E0009B002B75D000234E46B97805E090
:1030000016710133009ADBB293426AD207485A180C
:103010008446D2B262441079FF28F1D00023034ADB
:10302000537048E5FFF71CFC7FE6C0464C2D00209E
:10303000F1360020588700109C2B0020FC860010E1
:103040008410002000215846FFF7C8FA5846FFF7C1
:103050006BFB454B454E9B784549009389460023C1
:103060003100327888461E0011E04A46126873012A
:1030700094466344002B22D0DB6858469847434669
:103080001A780136F6B2511C33008E4207DCB24288
:10309000EBD89B1A374A5B0194466344ECE7542211
:1030A00000213148FEF7C4FC2F4B1022FF21181DD0
:1030B000FEF7BEFC2022FF212F48FEF7B9FC2A4B69
:1030C000009A9A7053E6FEF7ADFE021E00D1F2E4BC
:1030D000D37891781B020B43584608A900F01EF9DB
:1030E000A5E5B146059E4B4632003900224800F066
:1030F000A1FEB4461D4B019A1B78674401339342ED
:1031000000DB61E68AE71D4B32699A4200D073E723
:10311000049B009370E7FFF79DFB021E00D1CAE4F9
:103120005846137808A900F0F9F880E52189FFF7DF
:10313000C7F8021EF4D1BEE4022B0FD0FFF78CFBC0
:10314000021EC5D1B7E4FFF7B3F8021E00D1B2E406
:103150001223584608A900F0E1F868E5FFF7ACF83B
:10316000021EB5D1A7E4C0464C2D0020F136002048
:103170009C2B002058870010602D0020FD37001088
:10318000F8B557464E46DE4645460C00E0B51600FB
:103190001F00002A3CD0702398461E4B00259B46FA
:1031A0001D4B9A461AE05B461B7820009946534611
:1031B000997800F003FE00281CD021004846FFF754
:1031C00029FA002816D0A378DA09012A19D00A9A18
:1031D000013513702378E418B54219DA6378052BAA
:1031E00008D1E3789B079B0FBB4203D14246A378EB
:1031F0001A42D8D00020F0BCBB46B246A946A04631
:10320000F8BD0B9A013513702378E418B542E5DB5D
:103210000120F0E7841000204C2D0020702270B5B2
:103220008B780C001A4201D0002070BD064B2000A4
:103230001D78064B997800F0C1FD0028F4D02100DC
:103240002800FFF7E7F9F0E7841000204C2D00205C
:10325000074B080019687F2310B50340C0095B00C5
:1032600034301818034B181800F064FD10BDC04628
:10327000A02D00204C2D0020074B080019687F234B
:1032800010B50340C0095B0034301818034B181800
:1032900000F078FD10BDC046A02D00204C2D002070
:1032A0007F2070B508400F4C4000CD0924186419E8
:1032B000303425790020ED0700D570BD0126257931
:1032C0000948354300782571FFF732FA0028F4D118
:1032D000012223799343237123790332934323718A
:1032E000EBE7C0464C2D00208410002070B50A4E3C
:1032F0000500300008220C00FEF7A0FB00237F2110
:10330000F3602278B36091425B412800D90100222A
:103310000023FFF7C5FF70BD2C2D0020F8B5CE4669
:10332000474691462A4E80B50822070030000D001E
:103330009846FEF783FB4B46B3600023F381EC799C
:10334000A97924020C43231C444500D943469AB270
:103350009046B381002C13D0002A1FD04B46002B7F
:1033600034D0131C402A1FD89BB2984633787F2B49
:1033700020D80021174A43463800FFF791FF09E0A3
:103380007F222B7838009A42644100230022E10119
:10339000FFF786FFC0BCB946B046F8BD33787F2B37
:1033A00011D980210022E6E740239BB2984633786A
:1033B0007F2BDED9074C424649462000FEF73EFBF4
:1033C00080212200D7E700210022D4E70020E1E796
:1033D0002C2D0020EC2C002010B5142200210248D6
:1033E000FEF726FB10BDC0462C2D0020014B1861B6
:1033F0007047C0462C2D002010B5054C0100082256
:103400002000FEF71BFB0023A360E36010BDC04655
:103410002C2D0020F8B5394C1D0023780600DA0960
:10342000C9098A4210D00020002D00D0F8BD21002B
:103430003000FFF7E1F82369002B42D0220003217E
:10344000300098470120F1E77F2B06D8A0680028BC
:1034500039D02A002A49FEF7F1FAA368E2895919FE
:103460005219E38892B2E281A160934214D03F2DB9
:1034700012D9A589A81A071C80B240282FD8237812
:10348000BFB27F2B2DD80021AA4235D01C4A3B0069
:103490003000FFF705FFC9E72369002B05D02200A4
:1034A00002213000984700280FD07F220021237886
:1034B00030009A42494100230022C901FFF7F0FE83
:1034C000B4E70120B2E70020B0E700213000FFF7A9
:1034D00041F930008021FFF73DF90120A6E74027A0
:1034E000CDE7AA4207D0064C3A002000FEF7A6FA24
:1034F00080212200CBE780210022C8E72C2D00206C
:10350000EC2C002070B50500FFF7B0F9002800D1C1
:1035100070BDFFF7B3F90028FAD1C8236B43124AF4
:10352000D618F1780029F3D010339C18200000F051
:10353000F5FD3F28ECD90020F178FFF789FE00283F
:10354000E6D0200000F0EAFD3F2808D9EA01074D47
:103550004023F17852190020FFF7A2FED8E7F17856
:103560000020FFF789FED3E7242C0020A02B0020A9
:1035700010B50400FFF77AF9002801D1002010BD32
:10358000FFF77CF90028F9D1C830444302480019FC
:10359000037901201840F2E7242C0020C823584367
:1035A00010B5034B1030C01800F09AFD10BDC04696
:1035B000242C0020F0B5C824C64644431E4F1F4BA0
:1035C0001034050000B53C199A4200D91C4A20006D
:1035D00092B200F009FE8046FFF748F9002803D1B7
:1035E000404680BCB846F0BDFFF748F90028F7D147
:1035F000C8266E43BE19F378002BF1D0200000F0EE
:103600008DFD3F28ECD90020F178FFF721FE00283E
:10361000E6D0200000F082FD3F2808D9EA01094DDC
:103620004023F17852190020FFF73AFED8E7F178ED
:103630000020FFF721FED3E7242C0020FEFF00002E
:10364000FFFF0000A02B0020F8B50600FFF70EF9E1
:10365000002801D10020F8BDFFF710F90028F9D1AA
:10366000C82474432500144F2435ED19280000F0B8
:1036700037FD0028EED03F190020B978FFF7E8FDAC
:103680000028E7D00D48F6014036361831004022B8
:10369000280000F0A9FDB978041E08D0030032000C
:1036A0000020FFF7FDFD0028D4D02000D3E7002044
:1036B000FFF7E2FDCEE7C046242C0020A02B00201F
:1036C00070B5C82444430C4B2434E4180B4B05005C
:1036D0009A4200D90A4A200092B200F03FFE06004A
:1036E000200000F0FDFC3F2801D8300070BD28000C
:1036F000FFF7AAFFF9E7C046242C0020FEFF0000D8
:10370000FFFF0000C823584310B5034B2430C018F6
:1037100000F004FD10BDC046242C0020F0B50025AB
:10372000184C83B0C82200212000FEF781F9164B07
:1037300021001D70FF236371E1235B02A360200061
:1037400008234022A37338310095073B103000F066
:103750008FFC270001232100200026004022783121
:103760000093B837243000F083FCC0363800FDF7F2
:1037700039F93000FDF736F9E561276226636563A4
:1037800003B0F0BD242C0020202C0020074B1A6A27
:10379000196B002A02D00022DA611A62002902D0D5
:1037A00000221A635A6301207047C046242C00206F
:1037B00070B50F4C052200212000FEF739F90D4DA0
:1037C0002B78DA0707D50C4C9B070CD5012120007C
:1037D00000F098FE70BD2000103000F073FE2B78D2
:1037E000054C9B07F2D4200000F06CFEEEE7C046CB
:1037F000242C0020202C0020482C0020F0B54B79F0
:10380000060083B0022B02D18B79022B03D0002556
:10381000280003B0F0BD214FBB78002BF7D18B7887
:1038200009253B700C780C196378242B0BD1082ADE
:1038300002D80FE0AA420DD32378E418ED1863787C
:10384000ADB2242BF6D0052B08D0042B02D163791E
:103850000A2B11D00020FFF755FED9E721003000D8
:10386000FFF7DCFC0028D2D0A3787B702378ED181A
:10387000E4186378ADB2E8E7094B27780193013388
:103880000093022202233000E119FFF779FC00289F
:10389000BDD00E35ED19ADB2DCE7C046242C0020BA
:1038A000262C0020F8B56023140012780500134080
:1038B0000020202B07D1304A6379277916781B0224
:1038C0003B439E4200D0F8BD6378222B28D007D816
:1038D000202B17D0212BF6D101293ED00120F2E771
:1038E000232BF0D1012940D00329F7D1234B002B02
:1038F000F4D0E178A37809020020194300E000BF6A
:103900000120E0E7012928D00329E7D11C4B002B37
:10391000E4D0083200201100FEF7A8FA0120D2E717
:10392000012922D00329D9D10125A178E4782E00DC
:1039300024020C43012114712640243210007140EE
:1039400000F0E0FD0F4B002BC8D0620800203100D2
:103950002A4000E000BF0120B5E70723210028002E
:10396000094AFFF7DBFC0120ADE721002800FFF743
:10397000BDFC0120A7E7C046242C00200000000069
:103980006D1E0010000000002C2C0020F0B54F46EA
:103990004646D646C0B5354D8046EA780C001F0035
:1039A0008A425BD19AB210239A46314EAA44310022
:1039B000504600F0D3FC2F4B002B17D06B79FF2B18
:1039C00014D0002F12D0F219914603E001364E4573
:1039D0000CD06B7932789A42F8D1504600F096FBC1
:1039E0000028F3D1697900E000BFEFE7224B002BFC
:1039F00004D0224800F08AFB002834D00020FFF7D2
:103A000081FDAB78A34206D001242000E0BCBA4679
:103A1000B146A846F0BD1A4B002B02D0002000E0B2
:103A200000BF0020FFF710FE0028EDD1154D280043
:103A300000F056FB0028E7D1002FE5D0BB06E3D10C
:103A4000243D4046A978FFF703FC041EDCD0002388
:103A500000224046A978FFF723FCD6E7AB788B42DB
:103A6000D9D00024D1E700E000BFC7E7242C002014
:103A7000A02B00200000000000000000342C0020DB
:103A800000000000482C00209322F0B5134C85B0B4
:103A9000002120009200FDF7CBFF230020008026AC
:103AA00040270F4D4D337600FF33293002950093A8
:103AB00000220023002103970196FF3000F0D4F983
:103AC0004035201D28340023012200210397029550
:103AD0000196009400F0C8F905B0F0BDE82E002072
:103AE000682E002010B5054C200000F0F3F92000EE
:103AF0002538FF3800F0EEF9012010BD103000200D
:103B000070B5084C0025200031302570FF3000F0E2
:103B1000D9FC20000C3000F0D5FC2A23FF33E554FB
:103B2000657170BDE82E0020F8B54E464546DE466C
:103B30005746E0B54B7981468846FF2B25D12A238D
:103B4000414FFF330C78FE5C7B794444A5181E433B
:103B50001BD1982252009246253AFF3A93468B7821
:103B6000BA443B700B79BB44002B0AD06378052B19
:103B700005D111E02378E4186378052B0CD0A54219
:103B8000F8D84346E01A80B200E00020F0BCBB4603
:103B9000B246A946A046F8BDA542F2D92100484642
:103BA000FFF73CFB0028F0D0A3780136F6B2DB0922
:103BB000012B2AD0504600F085FC2A23A278FF333F
:103BC000FA54224A6379944621791B020B435B0520
:103BD00094215B0D63445A425341022049007A5CB0
:103BE0005B00824313437B5451464846083900F03A
:103BF000D1F90028C9D02378E41843461B79B34291
:103C0000B4D84346E01A80B2C0E7584600F05AFCE8
:103C10005A460E49A3788C460C3A53716379207941
:103C20001B0203435B055B0D634459424B41022079
:103C300011795B0081430B43594613710839002009
:103C400000F076F9D7E7C046E82E002000FEFFFF1F
:103C5000F8B52A251F4CFF35655D06001F008D4213
:103C60001DD19A235B00E35A002B0ED11A4B002B77
:103C700004D000201949BAB200E000BF3000184952
:103C800000F088F901242000F8BD2000962331308F
:103C90005B00E158BAB2FF3000F060FBE6E7637901
:103CA0008B4201D00024EEE70E4B002B04D03904E8
:103CB0000020090C00E000BF0B4D3000290000F08F
:103CC00037F901240028DED13A002900300000F045
:103CD00003F9D8E7E82E002000000000682E00203D
:103CE0001030002000000000EC2E002000B5030082
:103CF00083B0002910D00020012B07D80A78002AB1
:103D000004D00B48C2540120012A01D003B000BDE9
:103D10001800FEF7BBFDF9E7012301A900200B8085
:103D2000FEF7B4FD0028F1D00122014B1A70EDE737
:103D3000402D0020037870B5DB0704000E00DD0F76
:103D4000002B17D103785B0701D5280070BD012136
:103D50003000494204F088FA2378DB07DD0F002B9E
:103D60000AD123785B0708D4042223780125134362
:103D7000237002E00025E8E70025300004F04CFA4B
:103D8000E3E7C04670B50D00012104004942280058
:103D900004F06AFA23785B07DE0F002B04DB2800AF
:103DA00004F03AFA300070BD2378DB0704D4042213
:103DB000237893432370F2E70026F0E710B54379A8
:103DC00004791B0223435B055A0DC3789B079B0FA5
:103DD000022B05D0032B15D00020012B08D010BDDD
:103DE00002291CD00020402393424041C0B2F6E794
:103DF00002394B4259410D4B9C466144914240412E
:103E0000C0B2ECE702394B425941F023002049424D
:103E10009B001940403191424041C0B2DFE7044B62
:103E2000D3185A425341D8B2D9E7C046FF03000025
:103E300000FEFFFF8A1870B5914207D27F264C78AA
:103E4000052C04D00C7809198A42F8D870BD3400CA
:103E50008D782C4064000419ED0963550C7809191C
:103E60008A42ECD8F2E7C046F0B5C64600B582B04B
:103E7000150008AA40CA040017880BAA128801205E
:103E800090460A00217802408143200011432170AE
:103E900000933A0001233100083000F0E9F8002EC9
:103EA00001D0002F08D10A9B012063604346638044
:103EB00002B080BCB846F0BD26001C363000FCF7CE
:103EC00091FD0023002D01D0330000266361A6611F
:103ED000E9E7C04601207047F8B5E0230700080075
:103EE0000C785B00A407E4171C4008300D00160096
:103EF0003F3400F0F5F8002807D1002E05D03442F9
:103F000003D101242B781C4201D00020F8BD3800D9
:103F10006978FFF79DF90028F7D02B781C42F4D17F
:103F20000023002238006978FFF7BAF9EEE7C046AF
:103F3000F8B50D000835060028000C0000F0D0F898
:103F4000002803D0012723781F4201D00020F8BDAC
:103F500030006178FFF77CF90028F7D028006288EC
:103F6000616800F041F92378051E0BD01F42EDD1A6
:103F70000300626830006178FFF792F90028E5D00D
:103F80002800E4E71F42E1D130006178FFF774F9BF
:103F9000DCE7C046F8B5CE46474680B58B890600BB
:103FA0000C00002B08D101250B781D4241D00020C8
:103FB000C0BCB946B046F8BD0B789B0734D440234B
:103FC0005B429946402527000837380000F0A6F8E4
:103FD000A842ECD30122237890461A42E7D1300060
:103FE0006178FFF735F90028E1D0380000F096F845
:103FF00042462378854231D81A42D8D14B4662884E
:104000001840051C80B2904200D9151CADB20022A8
:104010006178002D00D062682B003000FFF740F976
:104020000028C4D02800C3E78025104BAD00994676
:10403000C9E74978FFF70CF90028B8D023781D426A
:10404000B5D1638800226178002B00D0626830000F
:10405000FFF726F90028AAD06088A9E71A42A6D15E
:1040600030006178FFF708F9A1E7C04600FEFFFFC6
:10407000F0B5C64600B5040006A80578802088463D
:1040800017001E000002824227D8E068002803D0F3
:104090000121494204F0E8F82069002803D00121F9
:1040A000494204F0E1F84346236073045B0CED03DE
:1040B0001D430023E0686381A780E58023810028F9
:1040C00001D004F0A9F820690124002801D004F0EF
:1040D000A3F8200080BCB846F0BD0024F9E7C04634
:1040E00010B5048941898288A3B288B28C4207D373
:1040F0001B1A9BB2101C9A4200D9181C80B210BD2A
:104100005100091A5B189BB2F4E7C046030000890E
:104110005B89C01A43425841C0B2704710B5048948
:1041200041898288A3B288B28C4207D31B1A9BB202
:1041300000209A4201D9D31A98B210BD5100091A31
:104140005B189BB2F4E7C04670B5040000690E002E
:10415000002803D00121494204F086F825896089AE
:10416000A288A9B283B285422CD3CD1AADB2002D5C
:104170002ED0AA4208D2914231D38B1A9BB26381CE
:104180009A4203D89B1A9BB29A42FBD9E2882168D3
:104190005204520C53433000C918FDF74FFC61899B
:1041A00001254B1C9BB2A288994214D900235200CE
:1041B0009B1A9BB220696381002801D004F02CF87F
:1041C000280070BD5500ED1A4D19ADB2002DD0D1AB
:1041D000002563899BB252009342EBDBE8E7891824
:1041E0008BB26381CCE7C046F0B546464F46D64613
:1041F000C0B50600006989469046002803D0012119
:10420000494204F031F831897289B5888BB294B291
:10421000914257D31F1BBFB2002F4DD0BD4205D2D4
:10422000AB4254D25B199CB22F0074814346B8450F
:1042300040D89FB2A54203D8641BA4B2A542FBD9C3
:10424000F288281B5204530C1900984633686143C6
:104250009C4680B26144874226D94346584383B284
:104260001A0048469A46FDF7E9FB434648467D1B3F
:1042700064195C4331685044A2B2FDF7DFFB7189D9
:10428000B588CB199BB26A00994217D99B1A9BB289
:1042900030697381002801D003F0BEFF3800E0BC14
:1042A000BA46B146A846F0BD424648467A43FDF7B5
:1042B000C5FBE4E73B1CBCE773899BB26A009342F1
:1042C000E6DBE3E76F003F1BDF19BFB2A4E75B1B30
:1042D0009CB2A9E7F8B50400C0680E00002803D01E
:1042E0000121494203F0C0FF258920896189A28804
:1042F000ADB283B28FB2884228D3DB1B9BB29A4205
:1043000009D8E779FF0906D1E068002801D003F059
:1043100083FF3800F8BD2B00954203D39B1A9BB254
:104320009342FBD2E28821685204520C5343C818CE
:104330003100FDF783FBA2886B1C9BB252009D42AB
:1043400009D99B1A9BB201272381DDE75100C91BC4
:104350005B189BB2D3E79342F5DBF2E7F0B54E462C
:104360004546DE465746E0B589460500140083B051
:10437000002A6ED0C068002803D00121494203F012
:1043800073FF2F89EA796B89BFB29BB2D20942D100
:10439000AE889F4267D27200D31AFB189BB20022EC
:1043A00090469E4231D9F31A1A1C9BB2A34200D9FF
:1043B000221C93B29846E8884346DB199BB29B4681
:1043C0003C00BE4203D8A41BA4B2B442FBD24004BA
:1043D000430C18009A462B6860439C46311B89B2F7
:1043E000604441454ED35246434649465A43FDF741
:1043F00025FBAB885B00BB4501D39B4503DB5A46DD
:10440000D31A9BB29B465B462B81E868002822D0DA
:1044100003F002FF1FE0AA889046944226D29F42F2
:1044200044D34146FA1A92B2490012198A4209DB72
:1044300042469A1892B2171BBFB29346BB423AD972
:104440007F1ABFB2E3199BB246469B46A046E88856
:10445000B6E700239846404603B0F0BCBB46B246E0
:10446000A946A046F0BDFB1A9BB298E7E888A21ABD
:104470004404640C54434246A144002AC5D0464635
:104480001F0099E75346594389B20A0001914946F2
:10449000FDF7D4FA43469A1B5346A2185A43019992
:1044A000286892B24944FDF7C9FAA2E75100CA1A36
:1044B000BA1892B2B9E7B942C2DD4646E888A046CA
:1044C0007EE7C04610B50400C068002803D0012173
:1044D000494203F0C9FE2069002803D00121494266
:1044E00003F0C2FE0023E06863812381002801D02D
:1044F00003F092FE2069002801D003F08DFE012018
:1045000010BDC04670B50400C0680D00002803D07F
:104510000121494203F0A8FE2069002803D00121AF
:10452000494203F0A1FE7F21E379ED011940E068E3
:104530002943E171002801D003F06EFE20690028B4
:1045400001D003F069FE012070BDC046F8B50E0031
:10455000EFF3108772B60C4B84009B681D59A9427B
:1045600005D00A4B9D420BD3094B9D4208D2064B06
:104570009B681E51BFF35F8F87F310882800F8BD3A
:10458000FDF782F8F3E7C04600ED00E0C00100103F
:10459000CC010010F8B5CE46474680B5040003F0C4
:1045A000A5FB384E3368013333607368002B34D079
:1045B000354DEB69002B28D0E26A344F2B6A01336A
:1045C0002B626B6A934200D26A62D3009B1A9B00F3
:1045D000FA18944652689168A260E1609068211DC3
:1045E0004160916062466261FA580132FA5003F00C
:1045F00089FBEB69002B04D07368DA6AE36A9A429C
:1046000013D3C0BCB946B046F8BD7368E26ADB6A32
:10461000934200D874601D4FD0E774603368012B5B
:1046200006D0E26A194F184DC8E703F053FBE8E7DC
:104630008C23164F98463D00B84428001C3502F0E4
:104640003FFF4545F9D108239946B144484602F059
:1046500037FF24239846B044404602F031FF300033
:10466000403002F02DFF30005C3002F029FF3000B6
:10467000783002F025FF4B46034DE26A6B614346FA
:10468000AB619BE73C140020BC1400209C19002067
:10469000F0B54F464646D646C0B5214E0F00B36A28
:1046A00000219846736904009946B3691D4D9A46E6
:1046B0004A236A686868D154043002F037FF631CEB
:1046C00016D06B68696844445C600431A0450BD81F
:1046D000484602F013FFF36AA34200D9F462E0BC3B
:1046E000BA46B146A846F0BD504602F007FFF6E7CD
:1046F000002FE6D0EB6F6A68996893606A68D160B2
:104700006A68996804324A606A6804329A602A00CA
:104710006B6878325A61AB6F0133AB67DFE7C04635
:10472000BC1400203C140020F0B5DE4657464E462F
:1047300045464E49E0B5886A431C9B468B62002B78
:104740000DD14B698A694A618B610B6B01330B6335
:104750004B691B68002B00D076E0013BCB62CB6A33
:104760009B4555D34B691B68002B00D173E0002398
:1047700099463F4B3F4F984600239C4637E064469E
:104780005C611468013C14609A6A002A0ED0DC69EE
:10479000186AA0601D6A50686C601C001834A04242
:1047A00057D0604698621068441E1460DC6A4A6AFA
:1047B000944200D94C62E200121B9200BD18AA4636
:1047C0006D68A8689D60D860A86846605046AE6075
:1047D0005861BB580133BB5043465B68DB6A9C425F
:1047E00001D9012399464B691B68002B38D04B69CE
:1047F000DB68DB685A68934536D35A699D68DC6884
:104800001E1DAC6065605568B542B8D15460B6E70E
:1048100000239946164B174F984643465B68DA6A61
:10482000D3009B1A9B00FB58012B01D90123994609
:104830004B6B002B01D0012399464846F0BCBB4688
:10484000B246A946A046F0BD4B69DB681B68CB6247
:1048500085E75560A5E700239946054B054F984627
:1048600001235B42CB62D8E7CA62D6E7BC140020C2
:104870003C1400209C190020F0B5C64600B5089CE9
:1048800007000E0015009846002C52D0079B002B05
:104890004FD04C2200212000FDF7CAF8079B0222CE
:1048A00023634923AD00E254A5212A000798FDF7B0
:1048B000BFF8236B043D9C46072365449D43002EAF
:1048C00017D032782D33E2543378002B0ED03523B5
:1048D0007278E2547378002B08D03623B278E25411
:1048E000B378002B02D03723F278E254372300222A
:1048F000E254069E042E1AD8E662A663201D02F03A
:10490000EDFD2000183002F0E9FD05239E1B424614
:10491000390028002461A661646203F0C9F92060AF
:104920002000FFF737FE200080BCB846F0BD04260B
:10493000E2E70020F8E7C046F8B5CE4647469500C6
:1049400080B5804628000E00994603F0E7FA071E5E
:1049500051D04C2003F0E2FA041E4FD04C2200212B
:10496000FDF766F82A00A52138002763FDF760F8F7
:10497000236B043D9C46072365449D43002E17D0BE
:1049800034233278E2543378002B0ED035237278FA
:10499000E2547378002B08D03623B278E254B3780F
:1049A000002B02D03723F278E25437230022E2545E
:1049B000089E042E28D8E662A663201D02F08EFD14
:1049C0002000183002F08AFD05239E1B4A4641460E
:1049D00028002461A661646203F06AF9099B2060E3
:1049E000002B00D01C602000FFF7D4FD0120C0BCCC
:1049F000B946B046F8BD01204042F8E7380003F060
:104A000009FB01204042F2E70426D4E7F8B5040090
:104A100003F06CF92A4E002C49D0271D380002F013
:104A200085FDA36A002B03D02000183002F07EFD24
:104A3000244D2B6A01332B627368A34229D0EB69A2
:104A40003368013B33606B691B68002B12D06B69C4
:104A5000DB681B68EB6203F055F94923E35C002B2C
:104A600010D0012B25D0EB69002B02D07368A34234
:104A700023D0F8BD013BEB6203F044F94923E35C2A
:104A8000002BEED1206B03F0C5FA200003F0C2FA30
:104A9000E9E7EB69002BD3D0300039005C3002F03D
:104AA00021FDAB6B0133AB6303F02CF9DBE77468DA
:104AB000B3E7200003F0AEFAD5E703F00BF9D8E72F
:104AC0003C140020BC140020F8B5CE4647461E4ECC
:104AD00005007368002080B5AB421FD003F006F9D3
:104AE0001A4B6C695A699B6990469946AF6A03F004
:104AF00009F9330040339F4214D044451FD04C4540
:104B00001DD0330078339C420ED05C36B44218D0AE
:104B1000631E9C410223604298430430C0BCB946E6
:104B2000B046F8BD0120F9E7AB6A0220002BF5D1B1
:104B30004833E85C0138431E98410230EEE702201A
:104B4000ECE70420EAE7C0463C140020BC14002037
:104B500010B5040003F0CAF8002C04D0E46A03F096
:104B6000D1F8200010BD014B5C68F7E73C14002031
:104B700010B5040003F0D0F8002C04D0E46A03F070
:104B8000CFF8200010BD014B5C68F7E73C14002013
:104B900010B5040003F0AAF8002C04D0A46B03F0B5
:104BA000B1F8200010BD014B5C68F7E73C14002011
:104BB00010B5040003F0B0F8002C04D0A46B03F08F
:104BC000AFF8200010BD014B5C68F7E73C140020F3
:104BD000F8B504000D00042900D9042503F086F877
:104BE000002C30D0A26B95421DD0264B1ED85E689B
:104BF000361B73425E41E06A824222D0854220D851
:104C0000A369A563002B02DB05214D1BA561C30031
:104C10001D4D1B1A9B006269EB189A4216D0002E9C
:104C200001D003F057F803F06DF8F8BD5968A142C0
:104C300026D05B68E06ADE6AAE42B64176428242C6
:104C4000DCD1E562DCE70F4B5C68CBE7271D380061
:104C500002F06CFC0D4BE26A596A8A4200D95A6232
:104C6000D3009B1A9B00E9184A689068A260E06034
:104C7000906847609760EA5861610132EA50CEE778
:104C80000026B8E73C1400209C190020BC1400202A
:104C900070B5040003F02AF8424D002C3BD0261DCD
:104CA000300002F043FCA36A002B03D02000183030
:104CB00002F03CFC28003100783002F013FC48225E
:104CC000A35C012B01D10023A35403F01BF8364E43
:104CD000F369002B03D16B68A3420FD070BD03F0C2
:104CE00005F873691B68002B17D07369DB681B68B4
:104CF000F36203F007F86B68A342EFD1F369002B6E
:104D000010D12A68A96F8A420AD0F36B002B0CD00D
:104D100001237363E2E76C68C1E7013BF362E8E7F4
:104D20006B60DBE702F0D6FFD8E77363726A1F4956
:104D3000D300981A8000085800281DD1541EE300A3
:104D4000181B80000858002828D1941EE300181B67
:104D500080000858002821D1D01EC3001C1AA400CE
:104D60000C59002C1CD1101FC3001C1AA4000C5994
:104D7000002C15D1053AD3009B1A9B00CC18606813
:104D800008334068CB186060984204D0C3686B60F9
:104D900072626B68A2E7E0686060F7E72200EBE709
:104DA0000200E9E73C140020BC1400209C190020FC
:104DB000F8B5204D04006B6883420AD0002808D063
:104DC00002F094FF2B00626978339A4202D002F01D
:104DD00099FFF8BD2A00A36A40329342F7D0002B16
:104DE000F5D14833E35C012BF1D0261D300002F0F1
:104DF0009DFB114BE26A596A8A4200D95A620F4BF5
:104E00009C466146D3009B1A9B00CF18796888683E
:104E1000A160E060886846608E6061466046C9585F
:104E200067610131C1506B68DB6A9A42CFD902F0E9
:104E300051FFCCE73C140020BC1400209C1900203A
:104E4000F0B5C64600B5040002F066FF264B616966
:104E50001A00783205000026914206D0280002F0A0
:104E60005FFF300080BCB846F0BD1800A26A403039
:104E70008242F3D0002AF1D14832A25C012AEDD05F
:104E80001A4A9046D26B002A28D15B68E26ADB6A34
:104E90009A4203D90123424601365363271D380045
:104EA00002F044FB4346E26A5B6A9A4201D94346F8
:104EB0005A620F4B9C46D3009B1A62469B00D01847
:104EC00042689168A260E16091684F6097606246B5
:104ED0006146D25860610132CA50BFE721001831E3
:104EE00002F000FBBAE7C0463C140020BC140020CE
:104EF0009C19002070B5234C4C222600403600211E
:104F00003000FCF795FD230002221F4D89331A70F3
:104F1000FF32A521FF3228002567FCF789FD1B4BD6
:104F20004C22B3862300200076331A70443002F0FE
:104F3000D5FA2000583002F0D1FA28000523FD30C0
:104F4000A365FF3002339843002211492665666647
:104F500002F0AEFE20643000FFF71CFB0D4BDE605C
:104F600002F096FC012802D00B4B1B6870BD72B694
:104F700001235B42E3620023E061A36202F014FFBD
:104F8000F2E7C046BC1400209C17002049440000F2
:104F9000815200103C15002088100020F8B502F066
:104FA000A3FDFFF733FD1A4BD868FFF72FFD194D0E
:104FB000AB6B002B22D04927174E04E0012B23D0E6
:104FC000AB6B002B1AD002F091FEB36EDC68201D93
:104FD00002F0ACFA3368013B3360AB6B013BAB636F
:104FE00002F090FEE35D002BE8D1206B03F012F895
:104FF000200003F00FF8AB6B002BE4D172B6002356
:10500000EB6102F065FEF8BD200003F003F8D7E77E
:105010003C150020BC1400203C140020024AD36B35
:105020000133D3637047C046BC140020F0B5D646A8
:105030004F464646C0B502F059FE484CE36B013B73
:10504000E363E36B002B6ED1454D2B68002B6AD0D8
:105050002B6C002B4AD0434B9A4600239C460133CD
:105060009846EB6CDB68D869196A9A6A8160486077
:10507000180056681830864264D0614699621168FB
:10508000013911605A699868D9681E1D81604860AD
:105090005068B04254D0116801391160D96A626A0F
:1050A000914200D961625046CA00521A920080189B
:1050B0008146406887689860DF6087687E608660A8
:1050C00048465861534650469B58013383506B689D
:1050D000DB6A994230D9434663632B6C002BC0D105
:1050E00063691B68002B2FD1013BE3621E4F3E69B1
:1050F000002E15D00123984608E0FFF715FB002885
:1051000001D043466363013E002E08D0E36B002BC1
:10511000F3D03B69013E01333B61002EF6D13E6185
:10512000636B002B15D1002402F0ECFD2000E0BCE5
:10513000BA46B146A846F0BD2B6C002B91D1CFE703
:105140005160A8E7516098E76369DB681B68E36218
:10515000CCE76B68012402F0BDFDE5E7BC1400203C
:105160003C1400209C1900203C150020F0B5D646C8
:105170004F464646234DC0B5EB6B0133EB630368E6
:10518000AE6A5C180460B3420CD9A3420CD8002765
:10519000FFF74CFF002828D03800E0BCBA46B146E3
:1051A000A846F0BDA34201D8A642F0D2AB6A0021C6
:1051B0009E1B98466B69144F9946AB697A689A466C
:1051C0004A237868D154043002F0B0F97B687968DA
:1051D000A4195C600431A0450AD9504602F08EF94A
:1051E0000127FFF723FF0028D6D102F073FDD3E794
:1051F000484602F083F9EB6A01279C42C8D2EC6270
:10520000C6E7C046BC1400203C140020F8B5CE46CA
:105210004746040080B500281FD0174DEB6B0133C3
:10522000EB63AF6A6B6900219846AB69134E9946F0
:105230004A2372687068D154043002F077F97368B9
:105240007168E4195C600431A7420CD9484602F049
:1052500055F9FFF7EBFE002801D102F03BFDC0BC81
:10526000B946B046F8BD404602F048F9EB6A9C42A8
:10527000EFD2EC62EDE7C046BC1400203C140020E5
:10528000F0B5C6462D4B4927984600B52C4D2D4EFE
:10529000AB6B002B19D002F029FDB36EDC68201D2A
:1052A00002F044F93368013B3360AB6B013BAB6305
:1052B00002F028FDE35D002B27D0012BE8D1200070
:1052C00002F0A8FEAB6B002BE5D143461B68012B17
:1052D00001D902F0FFFC6B6A002B1DD17368DB6AF9
:1052E000002BD5D143461B68012BD1D8EB6AAA6AA3
:1052F0009B1A012BCCD9EB6B0133EB636B6A002B50
:105300000CD07368FFF792FEC2E7206B02F082FEBA
:10531000200002F07FFEBBE77368B9E77368DB6AC1
:10532000002BEFD143461B68012BEBD8E86AAB6A30
:10533000C01A0128E6D902F065FDE3E79C190020B8
:10534000BC1400203C140020014B986A7047C046F2
:10535000BC140020014B986A7047C046BC14002062
:10536000014B18687047C0463C140020002801D04B
:1053700034307047014B5868FAE7C0463C140020AF
:10538000F8B58D4B57469A46DE464E464546524640
:10539000DB6BE0B50133D363884B34261D0099469F
:1053A00036239C4601333527984678354B461B6F8C
:1053B000002B28D04B46DB6FAB4224D00178DC6851
:1053C000A25D8A421CD1002900D1ECE0E25D934647
:1053D00042785A4514D1002A00D1E4E06246A25C2A
:1053E000934682785A450BD1002A00D1DBE0424631
:1053F000A25C9346C2785A4502D1002A00D1D2E07D
:105400005B68AB42DBD11C235B429B46ED186C4BC7
:10541000D9449945CAD153465B691A68002A2FD0EE
:105420001E00DB6808369E422AD0362290460132A2
:105430003425352794460178DC68625D8A421CD1A8
:10544000002900D1AFE0E25D914642784A4514D18F
:10545000002A00D1A7E04246A25C914682784A45E4
:105460000BD1002A00D19EE06246A25C9146C27830
:105470004A4502D1002A00D195E05B689E42DBD10B
:1054800053469B691A68002A2BD01E00DB68083639
:10549000B34226D036229046013234253527944631
:1054A0000178DC68625D8A4218D100297BD0E25D18
:1054B000914642784A4511D1002A74D04246A25CF6
:1054C000914682784A4509D1002A6CD06246A25C96
:1054D0009146C2784A4501D1002A64D05B68B34244
:1054E000DFD1384DAB6F002B2ED084232E00EB582C
:1054F0008036B34228D0352294460132914601329B
:10550000342790460178DC68E25D8A4219D100298F
:1055100049D06246A25C92464278524511D1002A97
:1055200041D04A46A25C92468278524509D1002A6F
:1055300039D04246A25C9246C278524501D1002A37
:1055400031D05B68B342DED1EB6D002B2AD0AB6E5D
:105550006435AB4226D036229046013234263527B8
:1055600094460178DC68A25D914218D100291AD0D6
:10557000E25D914642784A4511D1002A13D0424655
:10558000A25C914682784A4509D1002A0BD0624636
:10559000A25C9146C2784A4501D1002A03D05B68DB
:1055A000AB42DFD10024FFF741FD2000F0BCBB4639
:1055B000B246A946A046F8BDBC1400209C190020A4
:1055C000101900203C140020030010B5002811D051
:1055D00049201C5C022C08D00020012C00D010BDFA
:1055E0001B6B0B6010600130F9E7186B086001203D
:1055F0001360F4E7014B5B68EAE7C0463C14002007
:10560000014BD8687047C0463C1500208300024813
:10561000C018C0687047C0463C15002070B50A4DE0
:105620000400AB6AEA6A1B189A4203D0A86A0419FC
:10563000AC6270BD02F05AFB044A013C13690133AD
:10564000136102F05FFBF1E7BC1400203C15002061
:10565000084A10B5D36B04000133D36302F046FB54
:10566000054B18690019186102F04CFBFFF7DEFCCE
:1056700010BDC046BC1400203C150020F0B54646C5
:10568000D6464F46C0B5324E0400F36B0133F36388
:10569000304D6B68984216D002F028FBA36A676908
:1056A000984673699946B3699A4602F02BFB2B0022
:1056B0004033984507D04F4511D057450FD02B00A8
:1056C00078339F4208D00024FFF7B0FC2000E0BCF4
:1056D000BA46B146A846F0BDA36A002B33D0271DB9
:1056E000380001F023FF02F001FBA36A002B06D073
:1056F0002000183001F01AFF4A230122E25402F080
:1057000001FBE26A736A9A4200D97262124B9C46AC
:105710006146D3009B1A9B00C9188846496888686F
:10572000A160E060886847608F60414661616146C2
:105730006046C95801240131C1506B68DB6A9A4246
:10574000C2D97463C0E74833E35C012BBBD1C6E721
:10575000BC1400203C1400209C190020064B10B5FE
:10576000DB6B002B02D1FEF7DFFF10BD034A0020E8
:10577000136901331361F8E7BC1400203C150020C5
:1057800070B504000D00002805D002F0AFFA2564C2
:1057900002F0B8FA70BD014B5C68F6E73C140020DB
:1057A00010B5041E06D002F0A1FA246C02F0AAFA89
:1057B000200010BD014B5C68F5E7C0463C1400209A
:1057C00010B5041E06D002F0A7FA246C02F0A8FA65
:1057D000200010BD014B5C68F5E7C0463C1400207A
:1057E000030010B50800002B04D01B6C002B06D062
:1057F000984710BD034B5B681B6C002BF8D1002051
:10580000F7E7C0463C140020244830B5C36B002B9A
:1058100002D00123436330BD4363426A2049D30071
:105820009C1AA4000C59002C1DD1551EEB005C1BCA
:10583000A4000C59002C26D1951EEB005C1BA40083
:105840000C59002C1FD1D51EEB005C1BA4000C5979
:10585000002C18D1151FEB005C1BA4000C59002C68
:1058600011D1053AD3009B1A9B00CD186C68083300
:105870006468CB186C609C4207D00A4BE1685960A1
:1058800042625B68C7E72A00EDE7EC68054B6C6095
:10589000E168596042625B68BDE7C046BC14002005
:1058A0009C1900203C140020F8B5CE464746214CF8
:1058B0000D00616880B5183101F020FE1E4E0021F8
:1058C000B76A73699846B369626899464A23606803
:1058D000D154043001F02AFE6B1C15D06368616856
:1058E000ED195D600431AF4206D9484601F006FE6D
:1058F000C0BCB946B046F8BD404601F0FFFDF36AB2
:105900009D42F5D2F562F3E7E36F626899689360B0
:105910006268D1606268996804324A6062680432E1
:105920009A602200636878325A61A36F0133A367DB
:10593000DEE7C0463C140020BC140020F8B58023EC
:105940004746CE46294C15001B0662680B4380B5BE
:10595000936162684368264E9968D36162681162F8
:105960006268996818324A606268002118329A6049
:105970006368B76A98620368013303607369984685
:10598000B369626899464A236068D154043001F0D3
:10599000CDFD6B1C15D063686168ED195D60043145
:1059A000AF4206D9484601F0A9FDC0BCB946B04691
:1059B000F8BD404601F0A2FDF36A9D42F5D2F562C2
:1059C000F3E7E36F6268996893606268D160626828
:1059D000996804324A60626804329A6022006368FF
:1059E00078325A61A36F0133A367DEE73C140020CD
:1059F000BC140020F8B5CE4647462E4C43680D0037
:105A0000616880B59E68CB6161680E6261689E685E
:105A10001831716061681831996063689862036831
:105A200001330360002A23D0234B00219A6A5A696C
:105A30009B694A2362686068D154043001F076FDA6
:105A4000E36F6268996893606268D1606268996880
:105A500004324A60626804329A60220063687832D5
:105A60005A61A36F0133A367C0BCB946B046F8BD05
:105A7000114EB76A7369ED199846B3696168994622
:105A80004A236068CA54043001F050FD63685D60C9
:105A9000BD4209D361684046043101F02FFDF36A2D
:105AA0009D42E1D2F562DFE761684846043101F0CA
:105AB00025FDD9E73C140020BC140020C368F0B5D4
:105AC000DB68D869196A9A6A81604860180054686E
:105AD0001830844254D00021996211680139116054
